:0F054E0044697374616E6365002D2D2D20636DFC
:0D056B00758901E4F58CF58AD2A9D2AF2282
:1003F900780A7C007D007BFF7A0579577E007F06AD
:1004090012034312050412056B7BFF7A05794E75B9
:100419001508E4FD7F011204C312046E8E088F09CA
:100429007C007D64120396EF2430F50AAE08AF090B
:100439007C007D0A1203967C007D0A120396ED2446
:1004490030F50BAE08AF097C007D0A120396ED2446
:1004590030F50C7B007A00790A7515067D087F0254
:050469001204C380B481
:03000B00020003ED
:03000300D20032F6
:0804C3008D118B128A138914BC
:1004CB00E4F516E511BF01042480800224C0FF125D
:1004DB00051EE4F516E516C39515501CAB12AA13B1
:1004EB00A914851682758300120369FF1205367FE6
:0804FB009612055D051680DD77
:0105030022D5
:10050400C2A77F3812051E7F0C12051E7F06120536
:0A0514001E7F0112051EE4FEFF2207
:10051E00C2A6C2A58F807F0512055DD2A77F0512E8
:08052E00055DC2A7E4FEFF22F7
:10053600D2A6C2A58F807F0512055DD2A77F0512C0
:08054600055DC2A7E4FEFF22DF
:10046E00E4F510F511F512F513D2907F0112055D2A
:10047E00C2903091FDD28C2091FDC28CAF8CEFFEDC
:10048E00AD8A7C00E42DF511EC3EF510E4F58CF50B
:10049E008AAC10AD111201B97B9A7A9979D9783F4D
:1004AE0012000EE4FBFA79C878421201171201F21B
:0404BE008E128F13F8
:0104C2002217
:0100060022D7
:0C0578007F017E8E7D02DDFEDEFADFF6E4
:010584002254
:0E055D00AC07AF041CEF600512057880F52294
:10000E00EC4D6011E8497017ED33EC3304600DE4EC
:10001E00FCFFFEFD22E933E8330470F802025E12A3
:10002E00022958046009E4CC2481500628500902A4
:10003E000268284003020265C0E0EB4A7044B980B2
:10004E0006D0E0FB020254EF4E701CBD8008EBFFA1
:10005E00EAFEE9FD80EBE98DF0A4FEE5F00200F783
:10006E00E9CDF9EAFEEBFFEF89F0A4FCE5F0CE89CD
:10007E00F0A42EFFE435F0CD89F0A42DFEE435F08A
:10008E008067EF4E7005BD80D780C3EF8BF0A4ACB8
:10009E00F0EE8BF0A42CFCE435F0F8EF8AF0A42CF3
:1000AE00E5F038FCE433CB8DF0A42CFCE5F03BF806
:1000BE00EE8AF0A42CFCE5F038F8E433CF89F0A4F6
:1000CE002CFCE5F038CF3400CE89F0A42FFFE5F0FC
:1000DE003EFEE433C98DF0A42EFEE5F039CD8AF054
:1000EE00A42FFFE5F03EFEE43DFD33D0E0FB5007CC
:1000FE000BBB000F020268EC2CFCEF33FFEE33FE5D
:06010E00ED33FD0202408A
:10011400020268EC5D046005E85904700302025EA3
:10012400120229580460F6EC4860F2EC7004FDFEFB
:10013400FF22C860DB2481C85009C39860025006BE
:100144000202659850CAF582E9294B4A7005AB82D0
:1001540002025475F0007C1A7880C3EF9BEE9AED8E
:1001640099400DC3EF9BFFEE9AFEED99FDE842F036
:10017400DC23ACF0D0E0FFD0E0FED0E0FDAB822089
:10018400E7101BEB60BAEC2CFCEF33FFEE33FEED13
:1001940033FD020240E803F830E705C0F075F000D3
:1001A400EF2FFFEE33FEED33FD40B830E7C280AAF7
:1001B40075F020800E75F010800575F0087D007EC6
:1001C400007F003392D530D5031203EBEC3340109B
:1001D400EF33FFEE33FEED33FDEC33FCD5F0ED22CF
:0E01E400E5F0247EA2D513CC92E7CDCEFF220B
:1001F200EDD2E7CD33EC3392D524814006E4FFFE05
:10020200FDFC22FCE4CFCECDCC24E0501174FF8063
:10021200EDC3CC13CCCD13CDCE13CECF13CF047000
:07022200F030D5DE0203EB12
:10022900E9D2E7C933E833F892D5EDD2E7CD33EC1B
:0702390033FC5002B2D52294
:10024000EC30E7100FBF000C0EBE00080DBD00041F
:100250000BEB6014A2D5EB13FCED92E7FD2274FFCB
:10026000FCFDFEFF22E480F8A2D574FF13FC7D8024
:03027000E480EF38
:0300000002058571
:0C058500787FE4F6D8FD7581200203F9B0
:10027300E709F608DFFA8046E709F208DFFA803E6D
:1002830088828C83E709F0A3DFFA8032E309F6085A
:10029300DFFA8078E309F208DFFA807088828C83C2
:1002A300E309F0A3DFFA806489828A83E0A3F60876
:1002B300DFFA805889828A83E0A3F208DFFA804C50
:1002C30080D280FA80C680D4806980F28033801027
:1002D30080A680EA809A80A880DA80E280CA803390
:1002E30089828A83ECFAE493A3C8C582C8CCC58308
:1002F300CCF0A3C8C582C8CCC583CCDFE9DEE780D8
:100303000D89828A83E493A3F608DFF9ECFAA9F056
:10031300EDFB2289828A83ECFAE0A3C8C582C8CCAC
:10032300C583CCF0A3C8C582C8CCC583CCDFEADEC5
:10033300E880DB89828A83E493A3F208DFF980CC27
:1003430088F0EF60010E4E60C388F0ED2402B40420
:100353000050B9F582EB2402B4040050AF232345C7
:0603630082239002C37327
:10036900BB010CE58229F582E5833AF583E0225049
:1003790006E92582F8E622BBFE06E92582F8E22293
:0D038900E58229F582E5833AF583E49322AD
:10039600BC000BBE0029EF8DF084FFADF022E4CC4B
:1003A600F875F008EF2FFFEE33FEEC33FCEE9DEC14
:1003B600984005FCEE9DFE0FD5F0E9E4CEFD22ED5A
:1003C600F8F5F0EE8420D21CFEADF075F008EF2FA4
:1003D600FFED33FD4007985006D5F0F222C398FD95
:0503E6000FD5F0EA2232
:0E03EB00C3E49FFFE49EFEE49DFDE49CFC2223
:00000001FF
