:1002ED0000E010080810E000000F102020100F0093
:1002FD0000001010F8000000000020203F2020001A
:10030D00007008080808F000003028242221300071
:10031D0000300808088870000018202121221C00D8
:10032D000000804030F8000000060524243F2424FE
:10033D0000F88888880808000019202020110E0078
:10034D0000E0108888900000000F112020201F0071
:10035D0000180808886818000000003E0100000021
:10036D000070880808887000001C222121221C00C2
:10037D0000F008080810E0000001122222110F0001
:10038D003F3F3F3F3F3F3F3FFCFCFCFCFCFCFCFC88
:10039D0000000000000000000030300000000000F0
:1003AD000000000000000000000000000000000040
:1003BD00000000000000000000010101010101002A
:1003CD0000FC848484FC001010101010FF1010002D
:1003DD00003F1010103F0000010640807F0000001C
:1003ED00804020908886808080838C102040800003
:1003FD00008040201807004080403F0000000000B2
:10040D002424A4FE232200C03800FF000810600041
:10041D00080601FF01068180404027100C030000F3
:10042D002030AC63201880824222121A26428000AE
:10043D00226722121212404242427E424242400044
:10044D002030AC63201800084848FF484848080091
:10045D0022672212121200020202FF0212221E0055
:10046D000000FC242424FC252624FC242424040040
:10047D0040308F80844C55252525554C808080003B
:10048D00804020908886808080838C102040800062
:10049D00008040201807004080403F000000000011
:1004AD000008884828180FE8080808080808000000
:1004BD00002011090541817F01010509112000006E
:1004CD000202E22222FE222222FE2222E202020069
:1004DD000000FF484443404040434444FF000000B7
:1004ED0004E4242464A4243F24A4642424E4040008
:1004FD0000FF00080909097F09090948807F0000EC
:10050D000020202020FF000000FF402010080000E8
:10051D002060201010FF0000003F40404040780058
:10052D00000080C0E0E0E0E0E6EEFEFCF8E0E0E098
:10053D00E0E0F8FCFEEEE6E0E0E0E0C08000000068
:10054D0000FFFFFFFF01C1C1E1E1E1E1E1010101B7
:10055D000101E1E1E1E1E1C1C101FFFFFFFE0000A9
:10056D0000FFFFFFFF0001010101001070607038F6
:10057D0060603000000101010100FFFFFFFF00007E
:10058D0000030F1F1F3E3E7C7C7C3C3C3C3C3C3CB6
:10059D003C3C3C3C3C7C7C7C3C3E1F1F0F030000E4
:10090A00010800010900110A4501010302044E020F
:09091A00040107010102040008B8
:10092400758920759850758DFA858D8B758780D261
:06093400AFD2ACD28E220E
:100026001208E9E4FF120003E4FF1209771209241B
:10003600751EFF751F0575202D7B107D037F03122E
:1000460007A9751EFF751F037520CD7B28E4FD7F6C
:100056000112083B751EFF751F037520ED7B10E42A
:10006600FD7F0212083B751EFF751F0475200D7B70
:1000760030E4FD7F0212083B751EFF751F047520D4
:100086002D7B287D027F0112083B751EFF751F041C
:1000960075206D7B107D027F0212083B751EFF7571
:1000A6001F0475208D7B307D027F0212083B751E72
:1000B600FF751F0475204D7B287D047F0112083BC8
:1000C600751EFF751F0475206D7B107D047F02125F
:1000D600083B751EFF751F0475208D7B307D047FE0
:1000E6000212083BE51575F010A424EDF9740235EB
:1000F600F0751EFFF51F89207B18E4FD7F011208AD
:1001060005E51675F010A424EDF9740235F0751E98
:10011600FFF51F89207B20E4FD7F01120805E51706
:1001260075F010A424EDF9740235F0751EFFF51F65
:100136008920E4FBFD7F02120805E51875F010A47E
:1001460024EDF9740235F0751EFFF51F89207B0832
:10015600E4FD7F02120805E51975F010A424EDF9F7
:10016600740235F0751EFFF51F89207B20E4FD7FA4
:1001760002120805E51A75F010A424EDF97402358B
:10018600F0751EFFF51F89207B28E4FD7F0212080B
:1001960005E50AB4450B751EFF751F047520AD8075
:1001A6000EE50AB45712751EFF751F047520CD7B28
:1001B600187D027F0112083BE50B75F010A424EDB3
:1001C600F9740235F0751EFFF51F89207B387D0214
:1001D6007F01120805E50C75F010A424EDF97402F0
:1001E60035F0751EFFF51F8920E4FB7D027F0212A4
:1001F6000805E50D75F010A424EDF9740235F075C7
:100206001EFFF51F89207B087D027F02120805E587
:100216000E75F010A424EDF9740235F0751EFFF585
:100226001F89207B207D027F02120805E50F75F0ED
:1002360010A424EDF9740235F0751EFFF51F892010
:100246007B287D027F02120805E510B4530B751E4C
:10025600FF751F047520ED800EE510B44E12751E55
:10026600FF751F0575200D7B187D047F0112083B65
:10027600E51175F010A424EDF9740235F0751EFF32
:10028600F51F8920E4FB7D047F02120805E512753F
:10029600F010A424EDF9740235F0751EFFF51F89E0
:1002A600207B087D047F02120805E51375F010A473
:1002B60024EDF9740235F0751EFFF51F89207B20A9
:1002C6007D047F02120805E51475F010A424EDF9EB
:1002D600740235F0751EFFF51F89207B287D047F8B
:0702E600021208050200EA04
:030023000205AD26
:1005AD00C0E0C083C082C0D075D000C000C006C0FE
:0105BD000736
:1005BE0020980302070CAF99C298E509B4110040C8
:1005CE000302070E9005D9F828287302060C0206BE
:1005DE001A02062602063202063E02064A02065695
:1005EE0002067302068F0206A80206B20206CB02AC
:1005FE0006D50206DC0206E10206FD020705EF64DF
:10060E0047600302070E75090102070EBF500675FB
:10061E00090202070E020707BF4706750903020704
:10062E000E020707BF470675090402070E020707E9
:10063E00BF410675090502070E020707BF2C067596
:10064E00090602070E020707EF24D0FE74152508CF
:10065E00F8A6060508E508D39401500302070E75A7
:10066E0009070206F8EF24D0FE74172508F8A6062F
:10067E000508E508D39401500302070E750908809A
:10068E0069EF24D0FE74192508F8A6060508E508BA
:10069E00D39401406B7509098050EF642C7061751D
:1006AE00090A805CEF24D0FE74112508F8A6060511
:1006BE0008E508D39403404875090B802DEF642C90
:1006CE00703E75090C80398F1075090D80327509D1
:1006DE000E802DEF24D0FE740B2508F8A606050813
:1006EE00E508D39404401975090F7508008011BFF1
:1006FE002C0E75091080098F0A7509008002C299A7
:0F070E00D007D006D000D0D0D082D083D0E03238
:10094F00E4F580C2A3D2A4D2A5E58020E7FBC2A51F
:01095F002275
:1009600012094FC2A3C2A48F80D2A5000000C2A565
:010970002264
:1008C800F582E433F583AB1EAA1FA920120871FF35
:1008D80012094FD2A3C2A48F80D2A5000000C2A5DE
:0108E80022ED
:060971004307B802096013
:060977004307C002096005
:0C093A00AC0312089EAF05120971AF0457
:0909460053073F4307400209601A
:06097D0043073E02096081
:10089E00EF1460111460151460192403701BC2A0AC
:1008AE00C2A1C2A222C2A0D2A1D2A222D2A0C2A111
:0A08BE00D2A222D2A0D2A1C2A2222F
:1000030012089EE4FEAF06120971E4FF120946E4EA
:0E001300FDE4FF1208D80DBD40F70EBE08E751
:0100210022BC
:1008E90012094FE4FF12089E12097DE4FF12089EC7
:1008F9000F12097DE4FF12089E120003E4FF0209AA
:010909007776
:1008050012093AE4FEAB1EAA1FA9208E8275830049
:100815001208D40EBE08EEED04FF120941E4FEEE07
:100825002408F582E433F583AB1EAA1FA92012081C
:05083500D40EBE08EA2C
:01083A00229B
:10083B0012093AE4FEAB1EAA1FA9208E8275830013
:10084B001208D40EBE10EEED04FF120941E4FEEEC9
:10085B002410F582E433F583AB1EAA1FA9201208DE
:05086B00D40EBE10EAEE
:010870002265
:0407A9008D1CAC03F4
:1007AD0012089EAF1C120941E4FEAB1EAA1FA92020
:1007BD008E827583001208D40EBE20EEE51C04FF58
:1007CD00120941E4FEEE24201208C80EBE20F6E503
:1007DD001C2402FF120941E4FEEE24401208C80E4B
:1007ED00BE20F6E51C2403FF120941E4FEEE246051
:0707FD001208C80EBE20F631
:0108040022D1
:0300000002071DD7
:0C071D00787FE4F6D8FD758120020764A7
:10087100BB010CE58229F582E5833AF583E022503C
:1008810006E92582F8E622BBFE06E92582F8E22286
:0D089100E58229F582E5833AF583E49322A0
:10072900020026E493A3F8E493A34003F68001F2C0
:1007390008DFF48029E493A3F85407240CC8C333D1
:10074900C4540F4420C8834004F456800146F6DFA0
:10075900E4800B010204081020408090090AE47E1D
:10076900019360BCA3FF543F30E509541FFEE49395
:10077900A360010ECF54C025E060A840B8E493A35C
:10078900FAE493A3F8E493A3C8C582C8CAC583CA87
:10079900F0A3C8C582C8CAC583CADFE9DEE780BE3F
:0109230000D3
:00000001FF
