:10016700080C616263646566676804080000000044
:10012E001200FD7B007A00790C7519087D017F01A4
:05013E0012008F80FE9D
:08008F008D158B168A178918E4
:10009700E4F51AE515BF01042480800224C0FF128D
:1000A7000143E4F51AE51AC39519501CAB16AA17B4
:1000B700A918851A827583001200D0FF1201557F97
:0800C7009612011D051A80DDEF
:0100CF00220E
:1000FD00C2A27F381201437F0C1201437F06120109
:0A010D00437F01120143E4FEFF22CC
:10014300C2A1120117D2A27F0512011DC2A2E4FEB1
:02015300FF2289
:10015500D2A1120117D2A27F0512011DC2A2E4FE8F
:02016500FF2277
:06011700C2A08F807F05ED
:10011D00EFD3940040077E6EDEFE1F80F3E4FEFFFA
:01012D0022AF
:03000000020003F8
:0C000300787FE4F6D8FD75811A02004AEF
:1000D000BB010CE58229F582E5833AF583E02250E5
:1000E00006E92582F8E622BBFE06E92582F8E2222F
:0D00F000E58229F582E5833AF583E4932249
:10000F0002012EE493A3F8E493A34003F68001F2D8
:10001F0008DFF48029E493A3F85407240CC8C333F2
:10002F00C4540F4420C8834004F456800146F6DFC1
:10003F00E4800B0102040810204080900167E47EE9
:10004F00019360BCA3FF543F30E509541FFEE493B6
:10005F00A360010ECF54C025E060A840B8E493A37D
:10006F00FAE493A3F8E493A3C8C582C8CAC583CAA8
:10007F00F0A3C8C582C8CAC583CADFE9DEE780BE60
:010177000087
:00000001FF
