:1001CF00080C6162636465666768040800000000DC
:1001BA001201897B007A00790C7519087D017F018B
:0501CA0012011B80FE84
:08011B008D158B168A17891857
:10012300E4F51AE515BF01042480800224C0FF1200
:10013300008FE4F51AE51AC39519501CAB16AA17DC
:10014300A918851A8275830012015CFF1200D57FFE
:08015300961201A9051A80DDD6
:01015B002281
:10018900C2A27F3812008F7F0C12008F7F061200E7
:0A0199008F7F0112008FE4FEFF22A9
:02008F00AD07BB
:10009100C2A1C2A0D284C280C282C283D283E4FB45
:1000A10074807E00A803088006CEA2E713CE13D881
:1000B100F8FFEDF582EF558224FF9281D280C28054
:1000C1000BBB08DC1201A3D2A27F051201A9C2A2B7
:0300D100E4FEFF4B
:0100D4002209
:0200D500AD0775
:1000D700D2A1C2A0D284C280C282C283D283E4FBEF
:1000E70074807E00A803088006CEA2E713CE13D83B
:1000F700F8FFEDF582EF558224FF9281D280C2800E
:100107000BBB08DC1201A3D2A27F051201A9C2A270
:03011700E4FEFF04
:01011A0022C2
:0601A300D282C2847F0538
:1001A900EFD3940040077E6EDEFE1F80F3E4FEFF6E
:0101B9002223
:03000000020003F8
:0C000300787FE4F6D8FD75811A02004AEF
:10015C00BB010CE58229F582E5833AF583E0225058
:10016C0006E92582F8E622BBFE06E92582F8E222A2
:0D017C00E58229F582E5833AF583E49322BC
:10000F000201BAE493A3F8E493A34003F68001F24C
:10001F0008DFF48029E493A3F85407240CC8C333F2
:10002F00C4540F4420C8834004F456800146F6DFC1
:10003F00E4800B01020408102040809001CFE47E81
:10004F00019360BCA3FF543F30E509541FFEE493B6
:10005F00A360010ECF54C025E060A840B8E493A37D
:10006F00FAE493A3F8E493A3C8C582C8CAC583CAA8
:10007F00F0A3C8C582C8CAC583CADFE9DEE780BE60
:0101DF00001F
:00000001FF
