:100ADA0012345678EDCBA9871234567801FE01FEFE
:0A0AEA0012000000FFFFFFFFFFFFF6
:020B4D00C18065
:100936007580FF7590FF75B0FFC2AD75C8047587E9
:1009460080759870758921758DFA858D8BD28E7517
:100956008C60758A60C28CC2A9C2ABD2AFD2A8D253
:1009660088C2CAD2ACD200D280120A5F120B4612DB
:100976000B1A7F41120992C2807F0A7E00120AF486
:0C098600D2807F0A7E00120AF4C2802298
:100400001209367B007A0079657F521208D78F2255
:10041000E5226004D28080EBC2807B007A0079659F
:100420001206978F22E52270DAF52174652521F8EE
:10043000E6F5997F017E00120AF40521E521C394B7
:100440000440E87B007A0079651207128F22E522CA
:1004500070B1C283F528752900752A657BFF7A0A79
:1004600079EE7D017F6012078C8F22E5227094C2A5
:10047000847BFF7A0A79DA7F011204C98F22E52290
:100480007081C2857BFF7A0A79EA7D017FC0120301
:10049000088F22E5226003020403C2867D027F01E9
:1004A0001208018F22E5226003020403C281FB7A55
:1004B0000079657F021208758F22E522600302042D
:0904C00003C282120A9D0204032A
:0808D7008F238B248A2589265A
:1008DF00120B087D077F0D120A247D037F14120B64
:1008EF002C852329754401754500754600754729E8
:1008FF00754800754900754A277A00792912001C3E
:10090F00EF7021E528641045277019AB24AA25A99B
:10091F0026E5291202B5AB24AA25A926900001E5E8
:06092F002A0202C77FFE50
:01093500229F
:060697008B238A24892553
:10069D00E4F527120B08E4FD7F0D120A247D807FFF
:1006AD000E120B0C752A93752B207544027545009F
:1006BD0075460075472A754800754900754A287BAF
:1006CD00007A00792A7F0C1200208F26E526702BE8
:1006DD00FF742A2FF8E6AB23AA24A9258F827583F0
:1006ED00001202C7742A2FF8E662270FBF04E274C6
:1006FD002A2FF8E6652760037526FE7D807F0E1292
:04070D000B2CAF26DC
:0107110022C5
:060712008B238A248925D7
:10071800752893752970E4F52EFFAB23AA24A92523
:100728008F82758300120288FE742A2FF8A6068F1E
:1007380082758300120288622E0FBF04DD753F00A8
:1007480075400075412F7B007A0079287D071206D5
:1007580021120B0875440975450075460075472830
:10076800754800754900754A267B007A0079287F0C
:100778000C120020EF700AE527641845267002FF66
:03078800227FFECF
:01078B00224B
:06078C008B258A26892757
:100792008F2E8D2FE4FFAB25AA26A9278F82758382
:1007A20000120288FE74302FF8A6060FBF06E7E497
:1007B200FFAB28AA29A92A8F82758300120288FE1C
:1007C20074362FF8A6060FBF06E775440C75450070
:1007D20075460075472E754800754900754A2C7B91
:1007E200007A00792E7F0E1200208F2BE52B7009E4
:0E07F2007F081209E3EF20E303752BFEAF2B07
:0108000022D5
:060875008B238A24892573
:10087B007528308F29753F0075400075412A7A0025
:10088B00792812061D754404754500754600754799
:10089B0028754800754900754A267B007A0079282F
:1008AB007F0C120020EF7021E5276490452670190C
:1008BB00FE74282EF8E6AB23AA24A9258E82758315
:0B08CB00001202C70EBE10E9227FFEE3
:0108D60022FF
:0604C9008B238A24892523
:1004CF007528A08F29753F0075400075412A7B0064
:1004DF007A0079287D02120621754404754500754E
:1004EF004600754728754800754900754A267B00F8
:1004FF007A0079287F0C120020EF7010E527640432
:10050F0045267008E528540F640A60027FFEEF70DD
:10051F0063FEAB23AA24A9258E827583001202885D
:10052F00FD74282EF8A6050EBE10E7753F00754026
:10053F00007541387B007A0079287D1012062175ED
:10054F004412754500754600754728754800754972
:10055F0000754A267B007A0079287F0C120020EF65
:10056F007010E527640445267008E528540F640AC7
:04057F0060027FFE99
:010583002255
:100A9D00752650E4F527F53F754000754128FB7A22
:100AAD000079267D021206217544047545007546B0
:100ABD0000754726754800754900754A247B007AF4
:0C0ACD000079267F0C1200208F237F0090
:010AD90022FA
:10061000753F007540007541287A0079267B007D82
:0106200002D7
:080621008B3B8A3C893D8D3EB4
:100629007D047F05120B0C120A207D807F0A120BB4
:100639002CE4F542E542C3953E5019AB3BAA3CA9CF
:100649003D854282758300120288FD7F09120A24C2
:10065900054280E07D037F01120A247542FF7F0570
:100669001209E31542E5426004EF30E2F17F2212FC
:1006790009E3AB3FAA40A941EF1202B57F21120954
:0E068900E3AB3FAA40A941900001EF0202C777
:100A5F00D29400C29400D294007D0F7F01120A2419
:100A6F00007D3D7F11120A247D1E7F2D120A24E482
:100A7F00FD7F2C120A247D8D7F2A120A247D3E7F52
:0E0A8F002B120A247D407F15120A247F0022BC
:10099200EF64417040120B087D3D7F11120A247DE5
:1009A200867F17120A247D7F7F26120A247D1E7FEE
:1009B2002D120A24E4FD7F2C120A247D8D7F2A1237
:1009C2000A247D3E7F2B120A247F017E00120AF444
:0B09D200120B1A80037FFF227F00221F
:0609DD00AC07AB05E4FECF
:1009E300E4FEC291C292EF25E0547E4480FF7D086D
:1009F300EF30E703D38001C39290D291EF25E0FF5C
:100A0300C291DDEC7D08D291EE25E0FEA293E433A2
:0C0A13004206C291DDF0D292D291AF06F3
:010A1F0022B4
:040A2000E4FD7F0171
:100A2400C291C292EF25E0547EFF7E08EF30E703C7
:100A3400D38001C39290D291EF25E0FFC291DEEC06
:100A44007E08ED30E703D38001C39290D291ED2567
:0A0A5400E0FDC291DEECD292D291D7
:010A5E002275
:0D0B2C001209DDAE07AF04EB4EFD020A24F6
:040B08007D087F08DD
:0E0B0C001209DDAE07AF04EBF45EFD020A2411
:1000030075440475450075460075472675480075A7
:0D0013004900754A247A0079267B007F0C95
:080020008F408B418A428943A5
:10002800754BFEE4F54CF54DE54024F4600C24FED8
:10003800700E754C12754D108006754C77754D30E5
:10004800E54C4480FD7F02120A247D807F04120B58
:100058000C120A207D807F0A120B2CE4F54FF55014
:10006800C3E5509544E54F9400501FAB41AA42A9FF
:1000780043855082854F83120288FD7F09120A2426
:100088000550E55070DA054F80D6AD407F01120A61
:1000980024E540B40C077D807F0D120B2C754F07AB
:1000A8007550D07F041209E38F4EE5501550700249
:1000B800154FE550454F6009E54E20E004554D6069
:1000C800E27D807F0D120B0CE550454F7003020155
:1000D800857F061209E3EF541B6003020182F54B8A
:1000E800E54E554C30E003754BFFE540640C60036A
:1000F8000201857F0A1209E38F4E7F0C1209E3EF94
:100108005407FD6021E54E24FFFFE434FFFEEF783D
:1001180003C333CE33CED8F97C002DFFEC3EAB4879
:10012800AA49A94A800FE54E75F008A4FFAB48AA72
:1001380049A94AE5F08FF01202E9E54E7003754EC1
:1001480001E54ED394124003754E12E4F54FF55075
:10015800C3E550954EE54F940050227F091209E3FC
:10016800AB45AA46A947855082854F83EF1202C73F
:100178000550E55070DA054F80D6754BFE7D807FBF
:090188000C120B2C120A20AF4BE3
:01019100224B
:100B1A007F141209E3EF540370077D037F14120B4D
:010B2A002C9E
:010B2B0022A7
:070B46007D037F14020B0C7C
:080308008D238B248A25892630
:100310008F2985232A753F0075400075412B7B008E
:100320007A0079297D02120621754404754500750D
:100330004600754729754800754900754A277B00B6
:100340007A0079297F0C120020EF7010E5286404F0
:1003500045277008E529540F640A60027FFEEF709C
:100360004E78297C00FDAB24AA25A926FE7F041225
:100370000262753F0075400075412D7B007A00795F
:10038000297D04120621E4F527F528754406F54574
:10039000754600754729F548754900754A27FB7A67
:1003A0000079297F0C120020EF64FE6002E4FFEF69
:1003B000704D7529B085232AF53F75400075412B96
:1003C000FB7A0079297D02120621754404754500E7
:1003D000754600754729754800754900754A277BA1
:1003E000007A0079297F0C120020EF7010E5286454
:0F03F0000445277008E529540F640A60027FFE58
:0103FF0022DB
:020801008D2345
:100803007526C28F27120610120003EF7010E5251C
:10081300640445247008E526540F640A60027FFED1
:10082300EF7027F526F527F528F529F53F754000E4
:1008330075412AFB7A0079267D0412062175440648
:10084300120006EF64FE6002E4FFEF60037FFE2206
:100853007526B0852327120610120003EF7010E5EA
:1008630025640445247008E526540F640A60027F5A
:01087300FE86
:010874002261
:0C0B39007F057E047DF8DDFEDEFADFF6AD
:010B4500228D
:100AF400AB07AA06EB1BAE0270011A4E6005120B7F
:040B04003980F12221
:0300000002058472
:0C058400787FE4F6D8FD75819A0205CB63
:10019200E709F608DFFA8046E709F208DFFA803E4F
:1001A20088828C83E709F0A3DFFA8032E309F6083C
:1001B200DFFA8078E309F208DFFA807088828C83A4
:1001C200E309F0A3DFFA806489828A83E0A3F60858
:1001D200DFFA805889828A83E0A3F208DFFA804C32
:1001E20080D280FA80C680D4806980F28033801009
:1001F20080A680EA809A80A880DA80E280CA803372
:1002020089828A83ECFAE493A3C8C582C8CCC583E9
:10021200CCF0A3C8C582C8CCC583CCDFE9DEE780B9
:100222000D89828A83E493A3F608DFF9ECFAA9F038
:10023200EDFB2289828A83ECFAE0A3C8C582C8CC8E
:10024200C583CCF0A3C8C582C8CCC583CCDFEADEA7
:10025200E880DB89828A83E493A3F208DFF980CC09
:1002620088F0EF60010E4E60C388F0ED2402B40402
:100272000050B9F582EB2402B4040050AF232345A9
:0602820082239001E273EB
:10028800BB010CE58229F582E5833AF583E022502B
:1002980006E92582F8E622BBFE06E92582F8E22275
:0D02A800E58229F582E5833AF583E493228F
:1002B500BB010689828A83F0225002F722BBFE0128
:0202C500F32222
:1002C700F8BB010DE58229F582E5833AF583E8F06D
:1002D700225006E92582C8F622BBFE05E92582C819
:0202E700F22201
:1002E900BB010A89828A83F0E5F0A3F0225006F760
:0F02F90009A7F01922BBFE06F3E5F009F319225D
:10059000020400E493A3F8E493A34003F68001F27D
:1005A00008DFF48029E493A3F85407240CC8C3336C
:1005B000C4540F4420C8834004F456800146F6DF3B
:1005C000E4800B0102040810204080900B4DE47E73
:1005D000019360BCA3FF543F30E509541FFEE49330
:1005E000A360010ECF54C025E060A840B8E493A3F7
:1005F000FAE493A3F8E493A3C8C582C8CAC583CA22
:10060000F0A3C8C582C8CAC583CADFE9DEE780BED9
:010B4F0000A5
:00000001FF
