:0300000002043ABD
:0C043A00787FE4F6D8FD75812002048173
:0800030057656C636F6D650029
:0805D300040C00000000C1004F
:1004C600C2A18F807F017E001204D7D2A27F057E53
:0104D6000025
:1004D700D3EF9400EE940040257DC7EDD3940074CC
:1004E70080948040127C01ECD39400748094804007
:0E04F700031C80F31D80E4EF1F70D51E80D221
:0105050022D3
:0A05BF00C2A2C2A01204C6C2A2220A
:0A05C900C2A2D2A01204C6C2A222F0
:100584007F381205BF7F0C1205BF7F061205BF7F9F
:09059400011205BF7F800205BFC2
:0D0542007D01E4FF12054F7B2E7D017F013E
:10054F00AE0753050153060FED6003430640430604
:0B055F0080AF061205BFAF030205C904
:080506008D108A118B12A90768
:10050E00E4FA53100153010FE5122AF582E4351176
:10051E00F583E493FBC39420748094804015E9D353
:10052E00940F7480948050E0AF01AD1012054F0A05
:03053E000980D55C
:010541002297
:10056A00D29000000000000000000000000000001F
:0A057A0000000000000000C2902203
:1003600012056A3091FDD28C2091FDC28CAF8CEFCA
:10037000FEAD8A7C00E42DF50BEC3EF50AE4F58C2D
:10038000F58AAC0AAD0B1201B97B9A7A9979D978C2
:100390003F12000EE4FBFA79C878421201171201ED
:1003A000F28F0F8E0E8D0D8C0C8E088F09E47FBCA2
:1003B0007E02FDFCAB0FAA0EA90DA80CC312034FC1
:1003C0005003300012C2007B301205427B307D01A9
:1003D0007F0212054F8052E47B64FAF9F8AF0FAE4A
:1003E0000EAD0DAC0C1202AFEF2430FB120542E44F
:1003F0007B0AFAF9F8AF0FAE0EAD0DAC0C1202AFDE
:10040000E47B0AFAF9F81202AFEB2430FB7D017F9E
:100410000212054FE47B0AFAF9F8AF0FAE0EAD0DEC
:10042000AC0C1202AFEB2430FB7D017F0312054FB1
:0A0430007B4D7D017F0412054F2271
:03000B000205DC0F
:0305DC00D2003218
:0D05B200758901E4F58CF58AD2A9D2AF223B
:10059D001205B21205847A007B03E4FDFF120506F5
:0505AD0012036080FB59
:10000E00EC4D6011E8497017ED33EC3304600DE4EC
:10001E00FCFFFEFD22E933E8330470F802025E12A3
:10002E00022958046009E4CC2481500628500902A4
:10003E000268284003020265C0E0EB4A7044B980B2
:10004E0006D0E0FB020254EF4E701CBD8008EBFFA1
:10005E00EAFEE9FD80EBE98DF0A4FEE5F00200F783
:10006E00E9CDF9EAFEEBFFEF89F0A4FCE5F0CE89CD
:10007E00F0A42EFFE435F0CD89F0A42DFEE435F08A
:10008E008067EF4E7005BD80D780C3EF8BF0A4ACB8
:10009E00F0EE8BF0A42CFCE435F0F8EF8AF0A42CF3
:1000AE00E5F038FCE433CB8DF0A42CFCE5F03BF806
:1000BE00EE8AF0A42CFCE5F038F8E433CF89F0A4F6
:1000CE002CFCE5F038CF3400CE89F0A42FFFE5F0FC
:1000DE003EFEE433C98DF0A42EFEE5F039CD8AF054
:1000EE00A42FFFE5F03EFEE43DFD33D0E0FB5007CC
:1000FE000BBB000F020268EC2CFCEF33FFEE33FE5D
:06010E00ED33FD0202408A
:10011400020268EC5D046005E85904700302025EA3
:10012400120229580460F6EC4860F2EC7004FDFEFB
:10013400FF22C860DB2481C85009C39860025006BE
:100144000202659850CAF582E9294B4A7005AB82D0
:1001540002025475F0007C1A7880C3EF9BEE9AED8E
:1001640099400DC3EF9BFFEE9AFEED99FDE842F036
:10017400DC23ACF0D0E0FFD0E0FED0E0FDAB822089
:10018400E7101BEB60BAEC2CFCEF33FFEE33FEED13
:1001940033FD020240E803F830E705C0F075F000D3
:1001A400EF2FFFEE33FEED33FD40B830E7C280AAF7
:1001B40075F020800E75F010800575F0087D007EC6
:1001C400007F003392D530D503120341EC33401045
:1001D400EF33FFEE33FEED33FDEC33FCD5F0ED22CF
:0E01E400E5F0247EA2D513CC92E7CDCEFF220B
:1001F200EDD2E7CD33EC3392D524814006E4FFFE05
:10020200FDFC22FCE4CFCECDCC24E0501174FF8063
:10021200EDC3CC13CCCD13CDCE13CECF13CF047000
:07022200F030D5DE020341BC
:10022900E9D2E7C933E833F892D5EDD2E7CD33EC1B
:0702390033FC5002B2D52294
:10024000EC30E7100FBF000C0EBE00080DBD00041F
:100250000BEB6014A2D5EB13FCED92E7FD2274FFCB
:10026000FCFDFEFF22E480F8A2D574FF13FC7D8024
:03027000E480EF38
:1004460002059DE493A3F8E493A34003F68001F22A
:1004560008DFF48029E493A3F85407240CC8C333B7
:10046600C4540F4420C8834004F456800146F6DF86
:10047600E4800B01020408102040809005D3E47E3E
:10048600019360BCA3FF543F30E509541FFEE4937B
:10049600A360010ECF54C025E060A840B8E493A342
:1004A600FAE493A3F8E493A3C8C582C8CAC583CA6D
:1004B600F0A3C8C582C8CAC583CADFE9DEE780BE25
:0105DB00001F
:1002730075F008758200EF2FFFEE33FECD33CDCC42
:1002830033CCC58233C5829BED9AEC99E5829840C5
:100293000CF582EE9BFEED9AFDEC99FC0FD5F0D6A2
:1002A300E4CEFBE4CDFAE4CCF9A88222B800C1B9CC
:1002B3000059BA002DEC8BF084CFCECDFCE5F0CB0A
:1002C300F97818EF2FFFEE33FEED33FDEC33FCEB43
:1002D30033FB10D703994004EB99FB0FD8E5E4F9FE
:1002E300FA227818EF2FFFEE33FEED33FDEC33FCEB
:1002F300C933C910D7059BE99A4007EC9BFCE99ADF
:10030300F90FD8E0E4C9FAE4CCFB2275F010EF2F23
:10031300FFEE33FEED33FDCC33CCC833C810D70723
:100323009BEC9AE899400AED9BFDEC9AFCE899F85E
:0E0333000FD5F0DAE4CDFBE4CCFAE4C8F922F1
:0E034100C3E49FFFE49EFEE49DFDE49CFC22CD
:10034F00EB9FF5F0EA9E42F0E99D42F0E89C45F004
:01035F00227B
:00000001FF
