:0D010C000208FFDC020A0000010C14C18093
:0C011A007FEB7E5E7D0BDDFEDEFADFF683
:0101260022B6
:0901270020B002B20030B0FD224C
:1000D400D201758901E508F58C85098AD2AFD2A9C8
:1000E400D28C12012730001B30010D050CE50CD316
:1000F4009431400FC201800B150CE50CC3940B50D6
:0801040002D20112011A80DA97
:03000B0002009A56
:10009A00C0E0C0D0E508F58C85098AC3E50B9490C9
:1000AA00E50A94014006750A00750B00D3E50B9525
:1000BA000CE50A94005004D2A08002C2A0050BE508
:0A00CA000B7002050AD0D0D0E0321E
:0300000002000EED
:0C000E00787FE4F6D8FD758120020055D3
:10001A000200D4E493A3F8E493A34003F68001F228
:10002A0008DFF48029E493A3F85407240CC8C333E7
:10003A00C4540F4420C8834004F456800146F6DFB6
:10004A00E4800B010204081020408090010CE47E39
:10005A00019360BCA3FF543F30E509541FFEE493AB
:10006A00A360010ECF54C025E060A840B8E493A372
:10007A00FAE493A3F8E493A3C8C582C8CAC583CA9D
:10008A00F0A3C8C582C8CAC583CADFE9DEE780BE55
:0101190000E5
:00000001FF
