:100262003F065B4F666D7D077F6F777C395E7971E4
:01027200008B
:10023D00020D3CB0010F14010B0F010C0301080C52
:10024D0001090002120000010A0002140000011051
:04025D000101110288
:0302730093F58080
:0C0276007F057E047DF8DDFEDEFADFF679
:010282002259
:1001AF00C290D291D292D293E50975F00A8490024F
:1001BF0062120273D290C291D292D293E50975F076
:1001CF000A84E5F0120273D290D291C292D293E5D3
:1001DF000A75F00A8493F580120276D290D291D2EA
:1001EF0092C293E50A75F00A84E5F093F580020256
:0101FF007689
:10013C00E5B0540FFF640F6069EF24F9605F24FC95
:10014C00603D24FE601B147056C28C850B09D2A432
:10015C00C2A2C2A3C295D29485080AD2A7C2A58016
:10016C0016C28C850B09D2A4C2A2C2A3D295C2948A
:10017C0085080AC2A7D2A5C2A6C297D2968020C271
:10018C008C850B09C2A4D2A2C2A3C295D2948508B5
:10019C000AD2A7C2A5C2A6D297C2968002D28C124E
:0201AC000276D9
:0101AE00222E
:10020000C290C291C292C29353890F438901E50DF6
:10021000F58C850E8AD2AFD2A9D28C850B09D2A4D7
:10022000C2A2C2A3D295C29485080AC2A7D2A5C20F
:0D023000A6C297D29612013C1201AF80F8D1
:03000B0002000EE2
:10000E00C0E0C0D0E50DF58C850E8A150FE50F60AA
:10001E00030200AB1509150AE509703DE5101460E1
:10002E001614601E24027027850B09D2A4C2A2C228
:10003E00A3D295C2948018850809C2A4D2A2C2A3E5
:10004E008009850C09C2A4C2A2D2A3C295D294057E
:10005E0010E510B40303751000E50A703DE51114A8
:10006E00601614601E24027027850B0AD2A7C2A543
:10007E00C2A6D297C296801885080AC2A7D2A5C278
:10008E00A68009850C0AC2A7C2A5D2A6C297D2968F
:10009E000511E511B40303751100750F14D0D0D0FE
:0200AE00E0323E
:030000000200B04B
:0C00B000787FE4F6D8FD7581150200F79A
:1000BC00020200E493A3F8E493A34003F68001F258
:1000CC0008DFF48029E493A3F85407240CC8C33345
:1000DC00C4540F4420C8834004F456800146F6DF14
:1000EC00E4800B010204081020408090023DE47E65
:1000FC00019360BCA3FF543F30E509541FFEE49309
:10010C00A360010ECF54C025E060A840B8E493A3CF
:10011C00FAE493A3F8E493A3C8C582C8CAC583CAFA
:10012C00F0A3C8C582C8CAC583CADFE9DEE780BEB2
:01026100009C
:00000001FF
