:1000030000E010080810E000000F102020100F007F
:1000130000001010F8000000000020203F20200006
:10002300007008080808F00000302824222130005E
:1000330000300808088870000018202121221C00C5
:100043000000804030F8000000060524243F2424EB
:1000530000F88888880808000019202020110E0065
:1000630000E0108888900000000F112020201F005E
:1000730000180808886818000000003E010000000E
:100083000070880808887000001C222121221C00AF
:1000930000F008080810E0000001122222110F00EE
:1000A3003F3F3F3F3F3F3F3FFCFCFCFCFCFCFCFC75
:1000B30000000000000000000030300000000000DD
:1000C300000000000000000000000000000000002D
:1000D3000000000000000000000101010101010017
:1000E300000000000000000000000000000000000D
:1000F300000000000000000000000080E0F03C0E63
:1001030006030101010103020E3CF8E08000000038
:100113000000F8FFFF0300000000000000000000E3
:10012300000003FFFFFC000000003FFFFF80000012
:100133000000000000000000000080FFFF3F0000FF
:10014300000000030F1F7860C08000000000808063
:10015300E0783F0F030000000000000000000000F3
:100163000001010101010100000000000000000086
:10017300000000000000000000000000000000007C
:10018300000000000000000000000000000008085C
:10019300080808FCFEFF000000000000000000004B
:1001A3000000000000000000000000FFFFFF00004F
:1001B300000000000000000000000000000000003C
:1001C300000000FFFFFF000000000000000000002F
:1001D3000000000000000000000080FFFFFF80001F
:1001E300000000000000000000000000000001010A
:1001F30001010101010101010101010000000000F1
:1002030000000000000000000000000000000000EB
:100213000000000000000000000000E0F8FC040201
:100223000201010101010303061EFCF8E0000000C6
:100233000000000307070700000000000000008023
:10024300E0F87F1F070000000000000000000080AE
:10025300C0E070381C0E070301000000000000001E
:100263000000E0F0F8DEC7C3C1C0C0C0C0C0C0C05A
:10027300C0E0E0F80E0000000000010101010101EF
:10028300010101010101010101010101000000005F
:10029300000000000000000000000000000000005B
:1002A300000000000000000000000000F0F8C4029D
:1002B30002010101010103061EFCF8E00000000039
:1002C30000000000000101000080808080C04060C9
:1002D300381F0F03000000000000000000000000B2
:1002E3000000000000010103060EFCF8E00000001E
:1002F3000000001E3F7FCE800000000000008080D1
:10030300C0703F1F07000000000000000000000055
:1003130001010101010101000000000000000000D3
:1003230000000000000000000000000000000000CA
:1003330000000000000000000000000000000000BA
:10034300000000C03018FEFFFF00000000000000A6
:10035300000000000000C060180E03000000FFFF53
:10036300FF00000000000000000060785C4741408F
:10037300404040404040FFFFFF40404040400000BD
:100383000000000000000000000000000080FFFFEC
:10039300FF800000000000000000000000000000DB
:1003A300000101010101010101010101010100003D
:1003B300000000000000000000000000000000003A
:1003C30000000000000000000000000000FF07071D
:1003D30007070707070707070707070700000000C6
:1003E30000000000FFFF80C06030303030303070DC
:1003F300E0C0C00000000000000000008383010093
:1004030000000000000000000007FFFFFC000000E8
:100413000000000F3F7FC780800000000000808045
:10042300E0783F1F03000000000000000000000010
:1004330001010101010101000000000000000000B2
:1004430000000000000000000000000000000000A9
:10045300000000000000000000000000C0F0380CA5
:100463000602020101010101013E3C3800000000C7
:100473000000F0FFFF0380C0606030303030307028
:1004830060E0C080000000000000FFFFFF070100E4
:100493000000000000000000000003FFFFFC00005C
:1004A300000000071F3E70E0C080000000000080D5
:1004B30080C0783F1F030000000000000000000020
:1004C3000001010101010101000000000000000022
:1004D3000000000000000000000000000000000019
:1004E3000000000000000000000000E07F1F0F0775
:1004F3000707070707070707C7671F0F0300000062
:10050300000000000000000000000000C0F03C07F5
:1005130001000000000000000000000000000000D7
:1005230000E0F8FF0F0000000000000000000000E2
:100533000000000000000000FEFFFFFF00000000BD
:1005430000000000000000000000000000000000A8
:100553000001010000000000000000000000000096
:100563000000000000000000000000000000000088
:100573000000000000000000000000E0F8FC1E0680
:100583000201010101010103061EFCF8E000000065
:10059300000000070F3F3E78F0F0E0C0C080C0606D
:1005A30070381F0F030000000000C0F0FC3E07037B
:1005B300010001010303070F1E7EFCF0C0000000D1
:1005C3000000071F3F70C080800000000000008013
:1005D300C0703F1F07000000000000000000000083
:1005E3000101010101010100000000000000000001
:1005F30000000000000000000000000000000000F8
:100603000000000000000000000080F0F83C0E0233
:1006130003010101010102060C78F0C00000000093
:1006230000007FFFFFC0000000000000000000008A
:1006330080C0FFFFFE00000000000003070F0E1C38
:100643001C181818180C0C0603E0FFFF1F0000000D
:100653000000000078F8F8000000000080C0E0709F
:100663003C1F070100000000000000000000000123
:100673000101010101000000000000000000000072
:10068300002018C744444444FC4444444404000048
:100693000404040704040404FF040404040404001D
:1006A300000000FE2222222222222222FE0000003B
:1006B3008040300F02020202020242827F000000E9
:1006C300000000FE82828282828282FE000000009D
:1006D300000000FF40404040404040FF0000000059
:1006E300060909E6F80C040202020202041E0000D5
:1006F300000000071F302040404040402010000011
:100703000000C020100808E808081020C0000000FE
:1007130000000708102020212121110807000000F4
:1007230000000000000000000000000000000000C6
:1007330000000000000000000000000000000000B6
:10074300000080C0E0E0E0E0E6EEFEFCF8E0E0E080
:10075300E0E0F8FCFEEEE6E0E0E0E0C08000000050
:1007630000FFFFFFFF01C1C1E1E1E1E1E10101019F
:100773000101E1E1E1E1E1C1C101FFFFFFFE000091
:1007830000FFFFFFFF0001010101001070607038DE
:1007930060603000000101010100FFFFFFFF000066
:1007A30000030F1F1F3E3E7C7C7C3C3C3C3C3C3C9E
:1007B3003C3C3C3C3C7C7C7C3C3E1F1F0F030000CC
:10121A000620140D110B150E061A000000162A00DE
:06122A000119000118008B
:06128F00121295121295E7
:081295007FA57E96DEFEDFFA64
:01129D00222E
:060A52007B007A00792010
:100A58008B0F8A1089117515FF7516007517237B82
:100A680008E4FD7F0112105A7515FF7516007517F9
:100A7800037B10E4FD7F0112105AAB0FAA10A911D5
:100A8800120C3375F00A8475F010A42403F974006D
:100A980035F07515FFF51689177B18E4FD7F0112EF
:100AA800105AAB0FAA10A911120C3375F00A84E57D
:100AB800F075F010A42403F9740035F07515FFF5EE
:100AC8001689177B20E4FD7F0112105AAB0FAA107C
:100AD800A911900001120C4C75F00A8475F010A44D
:100AE8002403F9740035F07515FFF5168917E4FB32
:100AF800FD7F0212105AAB0FAA10A9119000011223
:100B08000C4C75F00A84E5F075F010A42403F97410
:100B18000035F07515FFF51689177B08E4FD7F028F
:100B280012105AAB0FAA10A911900002120C4C75A2
:100B3800F00A8475F010A42403F9740035F07515D3
:100B4800FFF51689177B20E4FD7F0212105AAB0FC0
:100B5800AA10A911900002120C4C75F00A84E5F055
:100B680075F010A42403F9740035F07515FFF51617
:100B780089177B28E4FD7F0212105AAB0FAA10A92F
:100B880011900003120C4C75F00A8475F090A4249F
:100B9800E3F9740035F07515FFF51689177B087DA4
:100BA800027F01120E75AB0FAA10A9119000031253
:100BB8000C4C75F00A84E5F075F090A424E3F97400
:100BC8000035F07515FFF51689177B207D027F012A
:100BD800120E75AB0FAA10A911900004120C4C75D7
:100BE800F00A8475F090A424E3F9740035F07515C3
:100BF800FFF51689177B107D027F02120E75AB0F69
:100C0800AA10A911900004120C4C75F00A84E5F0A2
:100C180075F090A424E3F9740035F07515FFF51606
:0B0C280089177B287D027F02020E75F9
:1007C300E4F50BF50CF50DF50E1210CE40FB1211EE
:1007D30070E4FF121191E4FF1212AF7512FF75134B
:1007E300067514837B28E4FD7F011210947512FFB4
:1007F3007513067514A37B10E4FD7F021210947524
:1008030012FF7513067514C37B30E4FD7F021210CB
:10081300947515FF7516007517A3E4FB7D047F021D
:1008230012105A7515FF7516007517B37B20E4FD7A
:100833007F0312105A7512FF7513067514E37B308C
:10084300E4FD7F031210947512FF751307751443AB
:100853007B107D037F03120EF385900AE50A2405BE
:10086300606F24FE6063146003020965750B011257
:1008730010FA120A52E50B7003020965120A5212AA
:10088300128F85900AE50A2411603324F86024242A
:10089300FA60111470DF7B007A007920120D16E4E0
:1008A300F50B80D1AF0D050DEFD3940340C7E4F5ED
:1008B3000D80C2C37404950D2420F80680B7C37459
:1008C30004950D2420F81680ACE4F518D2B2020981
:1008D30065750C017B007A00791A120A58E50C70D1
:1008E300030209657B007A00791A120A5812128FE3
:1008F30085900AE50A2411605D24F8604E24FC60AB
:100903004524FE60321470D5E51970047F0180021E
:100913007F008F19E519600B7512FF7513077514A6
:100923000380097512FF7513077514237B307D0649
:100933007F0312109480A6AF0E050EEFD3940040F0
:100943009CE4F50E8097E4F50C8092C37404950E35
:10095300241AF8068087C37404950E241AF8160225
:1009630008E01210FA120A52120F6F8E088F097CD8
:10097300037DE8120C8BEFC4F8540FC868FFEEC474
:1009830054F048FE74032FF974003E7515FFF516F5
:1009930089177B10E4FD7F0312105AAE08AF097C60
:1009A300007D64120C8B7C007D0A120C8BEDC4F865
:1009B300540FC868FFECC454F048FE74032FF97455
:1009C300003E7515FFF51689177B18E4FD7F0312AA
:1009D300105AAE08AF097C007D0A120C8B7C007D97
:1009E3000A120C8BEDC4F8540FC868FFECC454F022
:1009F30048FE74032FF974003E7515FFF516891729
:100A03007B28E4FD7F0312105AE526600B7515FF62
:100A13007516007517C380097515FF7516007517D0
:100A2300D37B08E4FD7F0312105AE51DB5230DE5C2
:100A33001EB52408E51FB52503751801E5197003D4
:0F0A430002085CE518700302085CB2B202085C9E
:10125C00E4F580C2A3D2A4D2A5E58020E7FBC2A509
:01126C00225F
:10126D0012125CC2A3C2A48F80D2A5000000C2A539
:01127D00224E
:10114F00F582E433F583AB15AA16A917120C4CFFE1
:10115F0012125CD2A3C2A48F80D2A5000000C2A538
:01116F00225D
:0612A9004307B802126DBC
:0612AF004307C002126DAE
:08127E00ED04FF1212A9AF04F8
:0912860053073F43074002126DBB
:0612B50043073E02126D2A
:10112500EF1460111460151460192403701BC2A01C
:10113500C2A1C2A222C2A0D2A1D2A222D2A0C2A181
:0A114500D2A222D2A0D2A1C2A2229F
:10119100121125E4FEAF061212A9E4FF121286E431
:0E11A100FDE4FF12115F0DBD40F70EBE08E722
:0111AF00221D
:1011700012125CE4FF1211251212B5E4FF121125C0
:101180000F1212B5E4FF121125121191E4FF0212A1
:01119000AFAF
:02105A00AC03E5
:10105C00121125AF05121281E4FEAB15AA16A917C1
:10106C008E8275830012115B0EBE08EE12127EE4A6
:10107C00FEEE2408F582E433F583AB15AA16A91706
:07108C0012115B0EBE08EA21
:01109300223A
:040E75008D13AC032A
:100E7900121125AF13121281E4FEAB15AA16A91798
:100E89008E8275830012115B0EBE18EEE5131212E5
:100E99007FE4FEEE241812114F0EBE18F6E5132456
:100EA90002121280E4FEEE243012114F0EBE18F623
:100EB900E5132403121280E4FEEE244812114F0EAA
:100EC900BE18F6E5132404121280E4FEEE24601223
:100ED900114F0EBE18F6E5132405121280E4FEEE3A
:090EE900247812114F0EBE18F618
:010EF20022DD
:02109400AC03AB
:10109600121125AF05121281E4FEAB12AA13A91490
:1010A6008E8275830012115B0EBE10EE12127EE464
:1010B600FEEE2410F582E433F583AB12AA13A914CD
:0710C60012115B0EBE10EADF
:0110CD002200
:040EF3008D10AC03AF
:100EF700121125AF10121281E4FEAB12AA13A91426
:100F07008E8275830012115B0EBE20EEE510121261
:100F17007FE4FEEE2420F582E433F583AB12AA13B7
:100F2700A91412115B0EBE20EAE5102402121280EA
:100F3700E4FEEE2440F582E433F583AB12AA13A94D
:100F47001412115B0EBE20EAE5102403121280E48E
:100F5700FEEE2460F582E433F583AB12AA13A914DD
:070F670012115B0EBE20EA2F
:010F6E002260
:08123100ECC313FCD2B57F02EF
:0D123900EFD3940040077E6EDEFE1F80F3B1
:011246002285
:08101D0075F00A84EE25F0FDD8
:10102500AC07D2B7E4FBEC30E004D2B68002C2B61E
:10103500121231C2B50BBB08EDE4FBED30E004D272
:10104500B68002C2B6EDC313FD121235C2B50BBB95
:0410550008E9C2B72D
:011059002274
:100FD700AC07D2B7E4FBEC30E004D2B68002C2B66D
:100FE700121231C2B50BBB08EDE4FBEDC313FD30A4
:100FF700B605430580800353057F121235C2B50B32
:10100700BB08E8C2B7EDC4540FFFED540FFEEF75F0
:05101700F00AA42EFF09
:01101C0022B1
:100D16008B0F8A108911E4FD7F8E121025AB0FAA66
:100D260010A911900005120C4CFF75F00A84C454EA
:100D3600F0FEEF7F8012101DAB0FAA10A9119000D4
:100D460004120C4CFF75F00A84C454F0FEEF7F8247
:100D560012101DAB0FAA10A911900003120C4CFF24
:100D660075F00A84C454F0FEEF75F00A84EE25F09F
:100D7600FD7F84121025AB0FAA10A9119000021254
:100D86000C4CFF75F00A84C454F0FEEF75F00A842B
:100D9600EE25F0FD7F86121025AB0FAA10A9119043
:100DA6000001120C4CFF75F00A84C454F0FEEF7576
:100DB600F00A84EE25F0FD7F88121025AB0FAA10ED
:100DC600A911120C33FF75F00A84C454F0FEEF75B6
:100DD600F00A84EE25F0FD7F8C1210257D807F8E33
:030DE600021025D3
:101202007F81120FD7AA07E4FD7F8E1210254302B9
:0812120080AD027F800210256F
:101247007F81120FD7AA07E4FD7F8E121025AD020A
:051257007F800210255C
:1011CE008B278A288929C2B7C2B5E4FD7F8E1210FB
:0A11DE0025AB27AA28A929020D1647
:1010FA007F8D120FD78F207F89120FD78F217F877D
:10110A00120FD78F227F85120FD78F237F83120F5B
:0B111A00D78F247F81120FD78F252272
:0B129E00EF1FAC0670011E4C70F62222
:1010CE00E4FDD2B07F08FE12129EC2B07F507E00A9
:1010DE0012129ED2B07F0E7E0012129EA2B0E43388
:0B10EE00FD7F147E0012129EED24FF17
:0110F90022D4
:1011B000E4FB7D08C2B0EBC313FBD2B030B00343F5
:0D11C00003807F047E0012129EDDE9AF0364
:0111CD0022FF
:0211E800AD0751
:1011EA007B08C2B0ED1392B07F057E0012129ED228
:0711FA00B0EDC313FDDBEBB8
:0112010022CA
:100F6F00E4FAFFF582F5831210CE7FCC1211E87FE1
:100F7F00441211E87F647E0012129E1210CE7FCCB5
:100F8F001211E87FBE1211E81211B0AA071211B0A8
:100F9F00EF54F8FEBEF80F6307FFEAF404FA70018E
:100FAF000FE4F5268003752601EFFE7C00E42AFF8F
:100FBF00EC3EFE7D19120C79EF7802CEC313CE13DF
:070FCF00D8F9F5828E83FFC3
:010FD60022F8
:03000000020DE905
:0C0DE900787FE4F6D8FD758129020E30F9
:100C3300BB010689828A83E0225002E722BBFE02BF
:090C4300E32289828A83E49322F2
:100C4C00BB010CE58229F582E5833AF583E022505D
:100C5C0006E92582F8E622BBFE06E92582F8E222A7
:0D0C6C00E58229F582E5833AF583E49322C1
:100C7900EF8DF0A4A8F0CF8CF0A428CE8DF0A42E8F
:020C8900FE2249
:100C8B00C2D5EC30E709B2D5E4C39DFDE49CFCEE84
:100C9B0030E715B2D5E4C39FFFE49EFE120CC1C32F
:100CAB00E49DFDE49CFC8003120CC130D507C3E42A
:060CBB009FFFE49EFE22F3
:100DF5000207C3E493A3F8E493A34003F68001F24A
:100E050008DFF48029E493A3F85407240CC8C333FE
:100E1500C4540F4420C8834004F456800146F6DFCD
:100E2500E4800B010204081020408090121AE47E31
:100E3500019360BCA3FF543F30E509541FFEE493C2
:100E4500A360010ECF54C025E060A840B8E493A389
:100E5500FAE493A3F8E493A3C8C582C8CAC583CAB4
:100E6500F0A3C8C582C8CAC583CADFE9DEE780BE6C
:0112300000BD
:100CC100BC000BBE0029EF8DF084FFADF022E4CC17
:100CD100F875F008EF2FFFEE33FEEC33FCEE9DECE0
:100CE100984005FCEE9DFE0FD5F0E9E4CEFD22ED26
:100CF100F8F5F0EE8420D21CFEADF075F008EF2F70
:100D0100FFED33FD4007985006D5F0F222C398FD60
:050D11000FD5F0EA22FD
:00000001FF
