:1007D1003F065B4F666D7D077F6F777C395E797170
:0107E1000017
:10078A00020D3CB0010F14010B0F010C0301080C00
:10079A0001090002120000010A00021400000110FF
:0407AA000101110236
:0300030093F580F2
:04000600E4FFDFFE36
:01000A0022D3
:1006B700C290D291D292D293E50975F00A8490073D
:1006C700D1120003D290C291D292D293E50975F06C
:1006D7000A84E5F0120003D290D291C292D293E538
:1006E7000A75F00A8493F580120006D290D291D24F
:1006F70092C293E50A75F00A84E5F093F58002004B
:0107070006EB
:10059A00E5B054F0FF64F0700302062AEF2490607D
:1005AA006024C0603E24E0601C24F07070C28C8518
:1005BA000B09C2A2D2A4D2A3D294C29585080AC2B8
:1005CA00A5D2A78016C28C850B09C2A2D2A4D2A337
:1005DA00C294D29585080AD2A5C2A7D2A6D296C23B
:1005EA0097803AC28C850B09D2A2C2A4D2A3D29414
:1005FA00C29585080AC2A5D2A7D2A6C296D297806A
:10060A001C850B09C2A2D2A4D2A3C294D295850892
:10061A000AD2A5C2A7D2A6D296C297D28C12000637
:01062A0022AD
:1004FF001202DE12073AE4FBFDFF1203BA7B01E49E
:10050F00FD7F181203BA7B02E4FD7F301203BA7B22
:10051F0003E4FD7F481203BA7B04E4FD7F601203FE
:10052F00BA7B057D04E4FF1203BA7B067D047F18B6
:10053F001203BA7B077D047F301203BA7B087D0458
:10054F007F481203BA7B097D047F601203BAC29001
:10055F00C291C292C29353890F438901E50DF58C65
:10056F00850E8AD2AFD2A9D28C850B09C2A2D2A492
:10057F00D2A3C294D29585080AD2A5C2A7D2A6D279
:0B058F0096C29712059A1206B780F87A
:03000B0002045D8F
:10045D00C0E0C0D0E50DF58C850E8A150FE50F6057
:10046D00030204FA1509150AE509703DE51014603B
:10047D001614601E24027027850B09C2A2D2A4D2C5
:10048D00A3C294D2958018850809D2A2C2A4D2A382
:10049D008009850C09D2A2D2A4C2A3D294C295051B
:1004AD0010E510B40303751000E50A703DE5111455
:1004BD00601614601E24027027850B0AC2A5D2A7F0
:1004CD00D2A6C296D297801885080AD2A5C2A7D205
:1004DD00A68009850C0AD2A5D2A7C2A6D296C2972C
:1004ED000511E511B40303751100750F14D0D0D0AB
:0204FD00E032EB
:10000E00000000387C7C60202020243E3E28E0E06A
:10001E00F83E3E2420202020000C0C0CFCFCFC00A2
:10002E0000FFFFFF93939393939393FFFFFF0000C3
:10003E00002070783F1F1F30302F6F6F6C6C6C6C10
:10004E006C6C6C6F6F6F6020000000F8F818181859
:10005E00F8F8F880E0F8FC9C1410D0F0F0300000B6
:10006E00000000F3F303FFFF63636321F1F0D9DFB8
:10007E00CFCFDFD9F8F030200010303F3F181F1FD0
:10008E00080C0C0C7F7F7F101010107F7F7F0000FC
:10009E000000001030303010101818F8F8F8080C66
:1000AE000C0C0C0C08000000001818181818181862
:1000BE00181818FFFFFF18181818181818181818FD
:1000CE0000000000000000000000007F7F7F0000A5
:1000DE000000000000000000000018181818181882
:1000EE0098F8F8181818181818181818181818005A
:1000FE0000000000000000C0FFFF3F0606060606D7
:10010E0006FEFEFE0000000000002070783C1F0F6F
:10011E000701000000206060707F3F0F00000000AC
:10012E000000000080E0F07CFEFEDC98181898D8E5
:10013E00F878381808000000001030F1F1F1D8D826
:10014E00D8CDCDF7F7F7CFCDCCD8D8D8D8D8181082
:10015E000000203030381C0E2E64607F7F3F00047C
:10016E000C0C1C3830300000000000E0E0E02020D5
:10017E002020A4BE3E382020202020E0E0E0000019
:10018E0000001819111190F0F87F1F17111010D0E0
:10019E00F0F03011111918000000206060616171DB
:1001AE0031333B1B1E0E0F0F0D1C383870702000A4
:1001BE0000000000000080C0E0F0783C1C3C70E0C5
:1001CE00C08080000000000000040C0E8E878F8F10
:1001DE008D8C8CFCFCFC8C8C8D8F8F8F860E0E0084
:1001EE0000006060616161616161617F7F7F61615B
:1001FE0061616161616000000080C0E0F83E1E3404
:10020E00F0F0501050E0FC3C1C34F0F05010181878
:10021E0000000080F1F13111111111FFFFFF1111DA
:10022E0011111F1F1F000000002060616131311984
:10023E001D0D0FFFFFFF0101113131393F1F03006B
:10024E0000000000000000000000000000000000A0
:10025E0000000000000000000018181818181818E8
:10026E001818181818181818181818181818181800
:10027E000000000000000000000000000000000070
:10028E0000000000000000000000000080E0F07C94
:10029E00FEFEDC98181898D8F87838180800000078
:1002AE00001030F1F1F1D8D8D8CDCDF7F7F7CFCD8A
:1002BE00CCD8D8D8D8D818100000203030381C0E22
:1002CE002E64607F7F3F00040C0C1C383030000021
:09080E00D2A1D2A0C2A0C2A12215
:07081700D2A1C2A0D2A02271
:0B07E20012076B1207EDAF0412076B4B
:0507ED00D2A1C2A1220F
:07076400AC0712080E7F78BC
:10076B00C2A1E4FEAD07530580BD8004D2A0800278
:0E077B00C2A0EF25E0FFD2A1C2A10EBE08E68B
:01078900224D
:0E07F2001207641207EDE4FF1207E202081777
:0E0800001207641207ED7F401207E20208178C
:1007AF001207C0E4FDFCFFFE1207C07F10E4FDFC42
:0107BF00FE3B
:1007C000AB07AA06ED4C6003020800AF031207F264
:0107D0002206
:10070800A907ED24B0FFE433FEE4FDFC1207C0E9BD
:10071800240254F0C4540F7E004410FFE4FDFC1280
:1007280007C0E92402FF7E00EF540FFFE4FDFC023E
:0207380007C0F8
:10073A00E4F9E924B0FFE433FEE4FDFC1207AFE478
:10074A00F5167D017C00E4FFFE1207C00516E516CA
:09075A00C3948040ED09B908D9EF
:010763002273
:0603BA008F168D178B1851
:1003C000E4F9120708E4F975F048E518A429F58264
:1003D000E435F0F583E582240EF582E5833400F5FB
:1003E00083E493FF7E007D017C001207C009B918E9
:1003F000D6E51704FDAF16120708E4F975F048E5D5
:1004000018A429F582E435F0F583E5822426F582E7
:10041000E5833400F583E493FF7E007D017C0012C8
:1004200007C009B918D6E5172402FDAF1612070850
:10043000E4F975F048E518A429F582E435F0F58370
:10044000E582243EF582E5833400F583E493FF7E64
:0C045000007D017C001207C009B918D61D
:01045C00227D
:1002DE00E4FDFC7FAEFE1207AF7F401207BCE4FDCB
:1002EE00FC7FB0FE1207C0E4FDFC7F81FE1207C04A
:1002FE00E4FDFC7FFFFE1207C0E4FDFC7FA1FE12B1
:10030E0007C0E4FDFC7FA6FE1207C0E4FDFC7FA83B
:10031E00FE1207C0E4FDFC7F3FFE1207C0E4FDFCA9
:10032E007FC8FE1207C0E4FDFC7FD3FE1207C0E4B7
:10033E00FDFCFFFE1207C0E4FDFC7FD5FE1207C0D8
:10034E00E4FDFC7F80FE1207C0E4FDFC7FD8FE12A8
:10035E0007C0E4FDFC7F05FE1207C0E4FDFC7FD95B
:10036E00FE1207C0E4FDFC7FF1FE1207C0E4FDFCA7
:10037E007FDAFE1207C0E4FDFC7F12FE1207C0E416
:10038E00FDFC7FDBFE1207C0E4FDFC7F30FE120792
:10039E00C0E4FDFC7F8DFE1207C0E4FDFC7F14FE61
:0C03AE001207C0E4FDFC7FAFFE0207C098
:0300000002062BCA
:0C062B00787FE4F6D8FD75811802067295
:100637000204FFE493A3F8E493A34003F68001F2D6
:1006470008DFF48029E493A3F85407240CC8C333C4
:10065700C4540F4420C8834004F456800146F6DF93
:10066700E4800B010204081020408090078AE47E92
:10067700019360BCA3FF543F30E509541FFEE49388
:10068700A360010ECF54C025E060A840B8E493A34F
:10069700FAE493A3F8E493A3C8C582C8CAC583CA7A
:1006A700F0A3C8C582C8CAC583CADFE9DEE780BE32
:0107AE00004A
:00000001FF
