:100367000C0C446174613A2D2D2D2D2D2D2D040873
:040377000000000082
:100114007BA07A8679017800AF0BAE0AAD09AC08F2
:1001240012006FEF2430F511F512E47B107A27F9F1
:10013400F8AF0BAE0AAD09AC0812006FE47B0AFA03
:10014400F9F812006FEB2430F513E47BE87A03F935
:10015400F8AF0BAE0AAD09AC0812006FE47B0AFAE3
:10016400F9F812006FEB2430F514E47B64FAF9F823
:10017400AF0BAE0AAD09AC0812006FE47B0AFAF9C2
:10018400F812006FEB2430F515E47B0AFAF9F8AFA6
:100194000BAE0AAD09AC0812006FE47B0AFAF9F859
:1001A40012006FEB2430F516E47B0AFAF9F8AF0B72
:0F01B400AE0AAD09AC0812006FEB2430F517222C
:0703A000D288D2A8D2AF22DF
:10031B001203361203A01201147B007A00790C75BC
:0B032B001D0C7D017F021202DA80EB46
:0300030002024FA7
:10024F00C0E0C0D075D000C000C003C004C005C05E
:03025F0006C007CF
:10026200C292C292C292C292D292C291750B007590
:100272000A00750900750800E4FBC290309312E58C
:100282000B4401F50BE50AF50AE509F509E508F560
:1002920008D290AF0BAE0AAD09AC08780112010189
:1002A2008F0B8E0A8D098C080BBB0FCEC290309338
:1002B20012E50B4401F50BE50AF50AE509F509E536
:0702C20008F508D290D2916B
:1002C900D007D006D005D004D003D000D0D0D0E0DC
:0102D90032F2
:0802DA008D198B1A8A1B891C87
:1002E200E4F51EE519BF01042480800224C0FF1238
:1002F200037CE4F51EE51EC3951D501CAB1AAA1B18
:10030200A91C851E82758300120006FF12038E7FD0
:0803120096120356051E80DD62
:01031A0022C0
:10033600C2A27F3812037C7F0C12037C7F06120355
:0A0346007C7F0112037CE4FEFF221D
:10037C00C2A1120350D2A27F05120356C2A2E4FE00
:02038C00FF224E
:10038E00D2A1120350D2A27F05120356C2A2E4FEDE
:02039E00FF223C
:06035000C2A08F807F05B2
:10035600EFD3940040077E6EDEFE1F80F3E4FEFFBF
:010366002274
:030000000201C337
:0C01C300787FE4F6D8FD75811E02020A68
:10000600BB010CE58229F582E5833AF583E02250AF
:1000160006E92582F8E622BBFE06E92582F8E222F9
:0D002600E58229F582E5833AF583E4932213
:1000330075F008758200EF2FFFEE33FECD33CDCC84
:1000430033CCC58233C5829BED9AEC99E582984007
:100053000CF582EE9BFEED9AFDEC99FC0FD5F0D6E4
:10006300E4CEFBE4CDFAE4CCF9A88222B800C1B90E
:100073000059BA002DEC8BF084CFCECDFCE5F0CB4C
:10008300F97818EF2FFFEE33FEED33FDEC33FCEB85
:1000930033FB10D703994004EB99FB0FD8E5E4F940
:1000A300FA227818EF2FFFEE33FEED33FDEC33FC2D
:1000B300C933C910D7059BE99A4007EC9BFCE99A21
:1000C300F90FD8E0E4C9FAE4CCFB2275F010EF2F66
:1000D300FFEE33FEED33FDCC33CCC833C810D70766
:1000E3009BEC9AE899400AED9BFDEC9AFCE899F8A1
:0E00F3000FD5F0DAE4CDFBE4CCFAE4C8F92234
:10010100E8600FEFC333FFEE33FEED33FDEC33FC5C
:03011100D8F12200
:1001CF0002031BE493A3F8E493A34003F68001F228
:1001DF0008DFF48029E493A3F85407240CC8C33331
:1001EF00C4540F4420C8834004F456800146F6DF00
:1001FF00E4800B0102040810204080900367E47E26
:10020F00019360BCA3FF543F30E509541FFEE493F4
:10021F00A360010ECF54C025E060A840B8E493A3BB
:10022F00FAE493A3F8E493A3C8C582C8CAC583CAE6
:10023F00F0A3C8C582C8CAC583CADFE9DEE780BE9E
:01037B000081
:00000001FF
